{
  "contractName": "StarNotary",
  "abi": [
    {
      "inputs": [
        {
          "internalType": "string",
          "name": "_name",
          "type": "string"
        },
        {
          "internalType": "string",
          "name": "_symbol",
          "type": "string"
        }
      ],
      "stateMutability": "nonpayable",
      "type": "constructor"
    },
    {
      "anonymous": false,
      "inputs": [
        {
          "indexed": true,
          "internalType": "address",
          "name": "owner",
          "type": "address"
        },
        {
          "indexed": true,
          "internalType": "address",
          "name": "approved",
          "type": "address"
        },
        {
          "indexed": true,
          "internalType": "uint256",
          "name": "tokenId",
          "type": "uint256"
        }
      ],
      "name": "Approval",
      "type": "event"
    },
    {
      "anonymous": false,
      "inputs": [
        {
          "indexed": true,
          "internalType": "address",
          "name": "owner",
          "type": "address"
        },
        {
          "indexed": true,
          "internalType": "address",
          "name": "operator",
          "type": "address"
        },
        {
          "indexed": false,
          "internalType": "bool",
          "name": "approved",
          "type": "bool"
        }
      ],
      "name": "ApprovalForAll",
      "type": "event"
    },
    {
      "anonymous": false,
      "inputs": [
        {
          "indexed": true,
          "internalType": "address",
          "name": "from",
          "type": "address"
        },
        {
          "indexed": true,
          "internalType": "address",
          "name": "to",
          "type": "address"
        },
        {
          "indexed": true,
          "internalType": "uint256",
          "name": "tokenId",
          "type": "uint256"
        }
      ],
      "name": "Transfer",
      "type": "event"
    },
    {
      "inputs": [
        {
          "internalType": "address",
          "name": "to",
          "type": "address"
        },
        {
          "internalType": "uint256",
          "name": "tokenId",
          "type": "uint256"
        }
      ],
      "name": "approve",
      "outputs": [],
      "stateMutability": "nonpayable",
      "type": "function"
    },
    {
      "inputs": [
        {
          "internalType": "address",
          "name": "owner",
          "type": "address"
        }
      ],
      "name": "balanceOf",
      "outputs": [
        {
          "internalType": "uint256",
          "name": "",
          "type": "uint256"
        }
      ],
      "stateMutability": "view",
      "type": "function",
      "constant": true
    },
    {
      "inputs": [
        {
          "internalType": "uint256",
          "name": "tokenId",
          "type": "uint256"
        }
      ],
      "name": "getApproved",
      "outputs": [
        {
          "internalType": "address",
          "name": "",
          "type": "address"
        }
      ],
      "stateMutability": "view",
      "type": "function",
      "constant": true
    },
    {
      "inputs": [
        {
          "internalType": "address",
          "name": "owner",
          "type": "address"
        },
        {
          "internalType": "address",
          "name": "operator",
          "type": "address"
        }
      ],
      "name": "isApprovedForAll",
      "outputs": [
        {
          "internalType": "bool",
          "name": "",
          "type": "bool"
        }
      ],
      "stateMutability": "view",
      "type": "function",
      "constant": true
    },
    {
      "inputs": [],
      "name": "name",
      "outputs": [
        {
          "internalType": "string",
          "name": "",
          "type": "string"
        }
      ],
      "stateMutability": "view",
      "type": "function",
      "constant": true
    },
    {
      "inputs": [
        {
          "internalType": "uint256",
          "name": "tokenId",
          "type": "uint256"
        }
      ],
      "name": "ownerOf",
      "outputs": [
        {
          "internalType": "address",
          "name": "",
          "type": "address"
        }
      ],
      "stateMutability": "view",
      "type": "function",
      "constant": true
    },
    {
      "inputs": [
        {
          "internalType": "address",
          "name": "from",
          "type": "address"
        },
        {
          "internalType": "address",
          "name": "to",
          "type": "address"
        },
        {
          "internalType": "uint256",
          "name": "tokenId",
          "type": "uint256"
        }
      ],
      "name": "safeTransferFrom",
      "outputs": [],
      "stateMutability": "nonpayable",
      "type": "function"
    },
    {
      "inputs": [
        {
          "internalType": "address",
          "name": "from",
          "type": "address"
        },
        {
          "internalType": "address",
          "name": "to",
          "type": "address"
        },
        {
          "internalType": "uint256",
          "name": "tokenId",
          "type": "uint256"
        },
        {
          "internalType": "bytes",
          "name": "data",
          "type": "bytes"
        }
      ],
      "name": "safeTransferFrom",
      "outputs": [],
      "stateMutability": "nonpayable",
      "type": "function"
    },
    {
      "inputs": [
        {
          "internalType": "address",
          "name": "operator",
          "type": "address"
        },
        {
          "internalType": "bool",
          "name": "approved",
          "type": "bool"
        }
      ],
      "name": "setApprovalForAll",
      "outputs": [],
      "stateMutability": "nonpayable",
      "type": "function"
    },
    {
      "inputs": [
        {
          "internalType": "uint256",
          "name": "",
          "type": "uint256"
        }
      ],
      "name": "starsForSale",
      "outputs": [
        {
          "internalType": "uint256",
          "name": "",
          "type": "uint256"
        }
      ],
      "stateMutability": "view",
      "type": "function",
      "constant": true
    },
    {
      "inputs": [
        {
          "internalType": "bytes4",
          "name": "interfaceId",
          "type": "bytes4"
        }
      ],
      "name": "supportsInterface",
      "outputs": [
        {
          "internalType": "bool",
          "name": "",
          "type": "bool"
        }
      ],
      "stateMutability": "view",
      "type": "function",
      "constant": true
    },
    {
      "inputs": [],
      "name": "symbol",
      "outputs": [
        {
          "internalType": "string",
          "name": "",
          "type": "string"
        }
      ],
      "stateMutability": "view",
      "type": "function",
      "constant": true
    },
    {
      "inputs": [
        {
          "internalType": "uint256",
          "name": "",
          "type": "uint256"
        }
      ],
      "name": "tokenIdToStarInfo",
      "outputs": [
        {
          "internalType": "string",
          "name": "name",
          "type": "string"
        }
      ],
      "stateMutability": "view",
      "type": "function",
      "constant": true
    },
    {
      "inputs": [
        {
          "internalType": "uint256",
          "name": "tokenId",
          "type": "uint256"
        }
      ],
      "name": "tokenURI",
      "outputs": [
        {
          "internalType": "string",
          "name": "",
          "type": "string"
        }
      ],
      "stateMutability": "view",
      "type": "function",
      "constant": true
    },
    {
      "inputs": [
        {
          "internalType": "address",
          "name": "from",
          "type": "address"
        },
        {
          "internalType": "address",
          "name": "to",
          "type": "address"
        },
        {
          "internalType": "uint256",
          "name": "tokenId",
          "type": "uint256"
        }
      ],
      "name": "transferFrom",
      "outputs": [],
      "stateMutability": "nonpayable",
      "type": "function"
    },
    {
      "inputs": [
        {
          "internalType": "string",
          "name": "_name",
          "type": "string"
        },
        {
          "internalType": "uint256",
          "name": "_tokenId",
          "type": "uint256"
        }
      ],
      "name": "createStar",
      "outputs": [],
      "stateMutability": "nonpayable",
      "type": "function"
    },
    {
      "inputs": [
        {
          "internalType": "uint256",
          "name": "_tokenId",
          "type": "uint256"
        },
        {
          "internalType": "uint256",
          "name": "_price",
          "type": "uint256"
        }
      ],
      "name": "putStarUpForSale",
      "outputs": [],
      "stateMutability": "nonpayable",
      "type": "function"
    },
    {
      "inputs": [
        {
          "internalType": "uint256",
          "name": "_tokenId",
          "type": "uint256"
        }
      ],
      "name": "buyStar",
      "outputs": [],
      "stateMutability": "payable",
      "type": "function",
      "payable": true
    },
    {
      "inputs": [
        {
          "internalType": "uint256",
          "name": "_tokenId",
          "type": "uint256"
        }
      ],
      "name": "lookUptokenIdToStarInfo",
      "outputs": [
        {
          "internalType": "string",
          "name": "",
          "type": "string"
        }
      ],
      "stateMutability": "view",
      "type": "function",
      "constant": true
    },
    {
      "inputs": [
        {
          "internalType": "uint256",
          "name": "_tokenId1",
          "type": "uint256"
        },
        {
          "internalType": "uint256",
          "name": "_tokenId2",
          "type": "uint256"
        }
      ],
      "name": "exchangeStars",
      "outputs": [],
      "stateMutability": "nonpayable",
      "type": "function"
    },
    {
      "inputs": [
        {
          "internalType": "address",
          "name": "_to1",
          "type": "address"
        },
        {
          "internalType": "uint256",
          "name": "_tokenId",
          "type": "uint256"
        }
      ],
      "name": "transferStar",
      "outputs": [],
      "stateMutability": "nonpayable",
      "type": "function"
    }
  ],
  "bytecode": "0x60806040523480156200001157600080fd5b506040516200330138038062003301833981810160405281019062000037919062000197565b818181600090805190602001906200005192919062000075565b5080600190805190602001906200006a92919062000075565b50505050506200037a565b82805462000083906200029f565b90600052602060002090601f016020900481019282620000a75760008555620000f3565b82601f10620000c257805160ff1916838001178555620000f3565b82800160010185558215620000f3579182015b82811115620000f2578251825591602001919060010190620000d5565b5b50905062000102919062000106565b5090565b5b808211156200012157600081600090555060010162000107565b5090565b60006200013c620001368462000233565b6200020a565b9050828152602081018484840111156200015557600080fd5b6200016284828562000269565b509392505050565b600082601f8301126200017c57600080fd5b81516200018e84826020860162000125565b91505092915050565b60008060408385031215620001ab57600080fd5b600083015167ffffffffffffffff811115620001c657600080fd5b620001d4858286016200016a565b925050602083015167ffffffffffffffff811115620001f257600080fd5b62000200858286016200016a565b9150509250929050565b60006200021662000229565b9050620002248282620002d5565b919050565b6000604051905090565b600067ffffffffffffffff8211156200025157620002506200033a565b5b6200025c8262000369565b9050602081019050919050565b60005b83811015620002895780820151818401526020810190506200026c565b8381111562000299576000848401525b50505050565b60006002820490506001821680620002b857607f821691505b60208210811415620002cf57620002ce6200030b565b5b50919050565b620002e08262000369565b810181811067ffffffffffffffff821117156200030257620003016200033a565b5b80604052505050565b7f4e487b7100000000000000000000000000000000000000000000000000000000600052602260045260246000fd5b7f4e487b7100000000000000000000000000000000000000000000000000000000600052604160045260246000fd5b6000601f19601f8301169050919050565b612f77806200038a6000396000f3fe60806040526004361061012a5760003560e01c806342842e0e116100ab578063a22cb4651161006f578063a22cb46514610405578063b88d4fde1461042e578063c87b56dd14610457578063d7830ccb14610494578063e7152a5c146104d1578063e985e9c5146104fa5761012a565b806342842e0e1461030e5780636352211e1461033757806370a082311461037457806395d89b41146103b15780639697c0a1146103dc5761012a565b806315e0afa5116100f257806315e0afa51461023a5780631967fd981461026357806323b872dd146102a05780632f1c34ef146102c9578063316a4361146102e55761012a565b806301ffc9a71461012f5780630564b1301461016c57806306fdde03146101a9578063081812fc146101d4578063095ea7b314610211575b600080fd5b34801561013b57600080fd5b5061015660048036038101906101519190612098565b610537565b604051610163919061250b565b60405180910390f35b34801561017857600080fd5b50610193600480360381019061018e919061213e565b610619565b6040516101a09190612728565b60405180910390f35b3480156101b557600080fd5b506101be610631565b6040516101cb9190612526565b60405180910390f35b3480156101e057600080fd5b506101fb60048036038101906101f6919061213e565b6106c3565b60405161020891906124a4565b60405180910390f35b34801561021d57600080fd5b506102386004803603810190610233919061205c565b610709565b005b34801561024657600080fd5b50610261600480360381019061025c9190612167565b610821565b005b34801561026f57600080fd5b5061028a6004803603810190610285919061213e565b6108fb565b6040516102979190612526565b60405180910390f35b3480156102ac57600080fd5b506102c760048036038101906102c29190611f56565b6109a1565b005b6102e360048036038101906102de919061213e565b610a01565b005b3480156102f157600080fd5b5061030c60048036038101906103079190612167565b610b7c565b005b34801561031a57600080fd5b5061033560048036038101906103309190611f56565b610c0e565b005b34801561034357600080fd5b5061035e6004803603810190610359919061213e565b610c2e565b60405161036b91906124a4565b60405180910390f35b34801561038057600080fd5b5061039b60048036038101906103969190611ef1565b610ce0565b6040516103a89190612728565b60405180910390f35b3480156103bd57600080fd5b506103c6610d98565b6040516103d39190612526565b60405180910390f35b3480156103e857600080fd5b5061040360048036038101906103fe91906120ea565b610e2a565b005b34801561041157600080fd5b5061042c60048036038101906104279190612020565b610e80565b005b34801561043a57600080fd5b5061045560048036038101906104509190611fa5565b610e96565b005b34801561046357600080fd5b5061047e6004803603810190610479919061213e565b610ef8565b60405161048b9190612526565b60405180910390f35b3480156104a057600080fd5b506104bb60048036038101906104b6919061213e565b610f60565b6040516104c89190612526565b60405180910390f35b3480156104dd57600080fd5b506104f860048036038101906104f3919061205c565b611023565b005b34801561050657600080fd5b50610521600480360381019061051c9190611f1a565b611078565b60405161052e919061250b565b60405180910390f35b60007f80ac58cd000000000000000000000000000000000000000000000000000000007bffffffffffffffffffffffffffffffffffffffffffffffffffffffff1916827bffffffffffffffffffffffffffffffffffffffffffffffffffffffff1916148061060257507f5b5e139f000000000000000000000000000000000000000000000000000000007bffffffffffffffffffffffffffffffffffffffffffffffffffffffff1916827bffffffffffffffffffffffffffffffffffffffffffffffffffffffff1916145b8061061257506106118261110c565b5b9050919050565b60076020528060005260406000206000915090505481565b6060600080546106409061297e565b80601f016020809104026020016040519081016040528092919081815260200182805461066c9061297e565b80156106b95780601f1061068e576101008083540402835291602001916106b9565b820191906000526020600020905b81548152906001019060200180831161069c57829003601f168201915b5050505050905090565b60006106ce82611176565b6004600083815260200190815260200160002060009054906101000a900473ffffffffffffffffffffffffffffffffffffffff169050919050565b600061071482610c2e565b90508073ffffffffffffffffffffffffffffffffffffffff168373ffffffffffffffffffffffffffffffffffffffff161415610785576040517f08c379a000000000000000000000000000000000000000000000000000000000815260040161077c906126c8565b60405180910390fd5b8073ffffffffffffffffffffffffffffffffffffffff166107a46111c1565b73ffffffffffffffffffffffffffffffffffffffff1614806107d357506107d2816107cd6111c1565b611078565b5b610812576040517f08c379a000000000000000000000000000000000000000000000000000000000815260040161080990612648565b60405180910390fd5b61081c83836111c9565b505050565b600061082c83610c2e565b9050600061083983610c2e565b90508173ffffffffffffffffffffffffffffffffffffffff163373ffffffffffffffffffffffffffffffffffffffff1614806108a057508073ffffffffffffffffffffffffffffffffffffffff163373ffffffffffffffffffffffffffffffffffffffff16145b6108df576040517f08c379a00000000000000000000000000000000000000000000000000000000081526004016108d690612628565b60405180910390fd5b6108ea8282866109a1565b6108f58183856109a1565b50505050565b600660205280600052604060002060009150905080600001805461091e9061297e565b80601f016020809104026020016040519081016040528092919081815260200182805461094a9061297e565b80156109975780601f1061096c57610100808354040283529160200191610997565b820191906000526020600020905b81548152906001019060200180831161097a57829003601f168201915b5050505050905081565b6109b26109ac6111c1565b82611282565b6109f1576040517f08c379a00000000000000000000000000000000000000000000000000000000081526004016109e890612708565b60405180910390fd5b6109fc838383611317565b505050565b6000600760008381526020019081526020016000205411610a57576040517f08c379a0000000000000000000000000000000000000000000000000000000008152600401610a4e906126e8565b60405180910390fd5b6000600760008381526020019081526020016000205490506000610a7a83610c2e565b9050813411610abe576040517f08c379a0000000000000000000000000000000000000000000000000000000008152600401610ab590612688565b60405180910390fd5b610ac98133856109a1565b60008190508073ffffffffffffffffffffffffffffffffffffffff166108fc849081150290604051600060405180830381858888f19350505050158015610b14573d6000803e3d6000fd5b5082341115610b765760003390508073ffffffffffffffffffffffffffffffffffffffff166108fc8534610b489190612894565b9081150290604051600060405180830381858888f19350505050158015610b73573d6000803e3d6000fd5b50505b50505050565b3373ffffffffffffffffffffffffffffffffffffffff16610b9c83610c2e565b73ffffffffffffffffffffffffffffffffffffffff1614610bf2576040517f08c379a0000000000000000000000000000000000000000000000000000000008152600401610be990612548565b60405180910390fd5b8060076000848152602001908152602001600020819055505050565b610c2983838360405180602001604052806000815250610e96565b505050565b6000806002600084815260200190815260200160002060009054906101000a900473ffffffffffffffffffffffffffffffffffffffff169050600073ffffffffffffffffffffffffffffffffffffffff168173ffffffffffffffffffffffffffffffffffffffff161415610cd7576040517f08c379a0000000000000000000000000000000000000000000000000000000008152600401610cce906126a8565b60405180910390fd5b80915050919050565b60008073ffffffffffffffffffffffffffffffffffffffff168273ffffffffffffffffffffffffffffffffffffffff161415610d51576040517f08c379a0000000000000000000000000000000000000000000000000000000008152600401610d4890612608565b60405180910390fd5b600360008373ffffffffffffffffffffffffffffffffffffffff1673ffffffffffffffffffffffffffffffffffffffff168152602001908152602001600020549050919050565b606060018054610da79061297e565b80601f0160208091040260200160405190810160405280929190818152602001828054610dd39061297e565b8015610e205780601f10610df557610100808354040283529160200191610e20565b820191906000526020600020905b815481529060010190602001808311610e0357829003601f168201915b5050505050905090565b6000604051806020016040528084815250905080600660008481526020019081526020016000206000820151816000019080519060200190610e6d929190611d15565b50905050610e7b338361157e565b505050565b610e92610e8b6111c1565b8383611758565b5050565b610ea7610ea16111c1565b83611282565b610ee6576040517f08c379a0000000000000000000000000000000000000000000000000000000008152600401610edd90612708565b60405180910390fd5b610ef2848484846118c5565b50505050565b6060610f0382611176565b6000610f0d611921565b90506000815111610f2d5760405180602001604052806000815250610f58565b80610f3784611938565b604051602001610f48929190612480565b6040516020818303038152906040525b915050919050565b6060600060066000848152602001908152602001600020604051806020016040529081600082018054610f929061297e565b80601f0160208091040260200160405190810160405280929190818152602001828054610fbe9061297e565b801561100b5780601f10610fe05761010080835404028352916020019161100b565b820191906000526020600020905b815481529060010190602001808311610fee57829003601f168201915b50505050508152505090508060000151915050919050565b600061102e82610c2e565b90508073ffffffffffffffffffffffffffffffffffffffff163373ffffffffffffffffffffffffffffffffffffffff161461106857600080fd5b6110738184846109a1565b505050565b6000600560008473ffffffffffffffffffffffffffffffffffffffff1673ffffffffffffffffffffffffffffffffffffffff16815260200190815260200160002060008373ffffffffffffffffffffffffffffffffffffffff1673ffffffffffffffffffffffffffffffffffffffff16815260200190815260200160002060009054906101000a900460ff16905092915050565b60007f01ffc9a7000000000000000000000000000000000000000000000000000000007bffffffffffffffffffffffffffffffffffffffffffffffffffffffff1916827bffffffffffffffffffffffffffffffffffffffffffffffffffffffff1916149050919050565b61117f81611ae5565b6111be576040517f08c379a00000000000000000000000000000000000000000000000000000000081526004016111b5906126a8565b60405180910390fd5b50565b600033905090565b816004600083815260200190815260200160002060006101000a81548173ffffffffffffffffffffffffffffffffffffffff021916908373ffffffffffffffffffffffffffffffffffffffff160217905550808273ffffffffffffffffffffffffffffffffffffffff1661123c83610c2e565b73ffffffffffffffffffffffffffffffffffffffff167f8c5be1e5ebec7d5bd14f71427d1e84f3dd0314c0f7b2291e5b200ac8c7c3b92560405160405180910390a45050565b60008061128e83610c2e565b90508073ffffffffffffffffffffffffffffffffffffffff168473ffffffffffffffffffffffffffffffffffffffff1614806112d057506112cf8185611078565b5b8061130e57508373ffffffffffffffffffffffffffffffffffffffff166112f6846106c3565b73ffffffffffffffffffffffffffffffffffffffff16145b91505092915050565b8273ffffffffffffffffffffffffffffffffffffffff1661133782610c2e565b73ffffffffffffffffffffffffffffffffffffffff161461138d576040517f08c379a000000000000000000000000000000000000000000000000000000000815260040161138490612588565b60405180910390fd5b600073ffffffffffffffffffffffffffffffffffffffff168273ffffffffffffffffffffffffffffffffffffffff1614156113fd576040517f08c379a00000000000000000000000000000000000000000000000000000000081526004016113f4906125c8565b60405180910390fd5b611408838383611b51565b6114136000826111c9565b6001600360008573ffffffffffffffffffffffffffffffffffffffff1673ffffffffffffffffffffffffffffffffffffffff16815260200190815260200160002060008282546114639190612894565b925050819055506001600360008473ffffffffffffffffffffffffffffffffffffffff1673ffffffffffffffffffffffffffffffffffffffff16815260200190815260200160002060008282546114ba919061280d565b92505081905550816002600083815260200190815260200160002060006101000a81548173ffffffffffffffffffffffffffffffffffffffff021916908373ffffffffffffffffffffffffffffffffffffffff160217905550808273ffffffffffffffffffffffffffffffffffffffff168473ffffffffffffffffffffffffffffffffffffffff167fddf252ad1be2c89b69c2b068fc378daa952ba7f163c4a11628f55a4df523b3ef60405160405180910390a4611579838383611b56565b505050565b600073ffffffffffffffffffffffffffffffffffffffff168273ffffffffffffffffffffffffffffffffffffffff1614156115ee576040517f08c379a00000000000000000000000000000000000000000000000000000000081526004016115e590612668565b60405180910390fd5b6115f781611ae5565b15611637576040517f08c379a000000000000000000000000000000000000000000000000000000000815260040161162e906125a8565b60405180910390fd5b61164360008383611b51565b6001600360008473ffffffffffffffffffffffffffffffffffffffff1673ffffffffffffffffffffffffffffffffffffffff1681526020019081526020016000206000828254611693919061280d565b92505081905550816002600083815260200190815260200160002060006101000a81548173ffffffffffffffffffffffffffffffffffffffff021916908373ffffffffffffffffffffffffffffffffffffffff160217905550808273ffffffffffffffffffffffffffffffffffffffff16600073ffffffffffffffffffffffffffffffffffffffff167fddf252ad1be2c89b69c2b068fc378daa952ba7f163c4a11628f55a4df523b3ef60405160405180910390a461175460008383611b56565b5050565b8173ffffffffffffffffffffffffffffffffffffffff168373ffffffffffffffffffffffffffffffffffffffff1614156117c7576040517f08c379a00000000000000000000000000000000000000000000000000000000081526004016117be906125e8565b60405180910390fd5b80600560008573ffffffffffffffffffffffffffffffffffffffff1673ffffffffffffffffffffffffffffffffffffffff16815260200190815260200160002060008473ffffffffffffffffffffffffffffffffffffffff1673ffffffffffffffffffffffffffffffffffffffff16815260200190815260200160002060006101000a81548160ff0219169083151502179055508173ffffffffffffffffffffffffffffffffffffffff168373ffffffffffffffffffffffffffffffffffffffff167f17307eab39ab6107e8899845ad3d59bd9653f200f220920489ca2b5937696c31836040516118b8919061250b565b60405180910390a3505050565b6118d0848484611317565b6118dc84848484611b5b565b61191b576040517f08c379a000000000000000000000000000000000000000000000000000000000815260040161191290612568565b60405180910390fd5b50505050565b606060405180602001604052806000815250905090565b60606000821415611980576040518060400160405280600181526020017f30000000000000000000000000000000000000000000000000000000000000008152509050611ae0565b600082905060005b600082146119b257808061199b906129e1565b915050600a826119ab9190612863565b9150611988565b60008167ffffffffffffffff8111156119f4577f4e487b7100000000000000000000000000000000000000000000000000000000600052604160045260246000fd5b6040519080825280601f01601f191660200182016040528015611a265781602001600182028036833780820191505090505b5090505b60008514611ad957600182611a3f9190612894565b9150600a85611a4e9190612a2a565b6030611a5a919061280d565b60f81b818381518110611a96577f4e487b7100000000000000000000000000000000000000000000000000000000600052603260045260246000fd5b60200101907effffffffffffffffffffffffffffffffffffffffffffffffffffffffffffff1916908160001a905350600a85611ad29190612863565b9450611a2a565b8093505050505b919050565b60008073ffffffffffffffffffffffffffffffffffffffff166002600084815260200190815260200160002060009054906101000a900473ffffffffffffffffffffffffffffffffffffffff1673ffffffffffffffffffffffffffffffffffffffff1614159050919050565b505050565b505050565b6000611b7c8473ffffffffffffffffffffffffffffffffffffffff16611cf2565b15611ce5578373ffffffffffffffffffffffffffffffffffffffff1663150b7a02611ba56111c1565b8786866040518563ffffffff1660e01b8152600401611bc794939291906124bf565b602060405180830381600087803b158015611be157600080fd5b505af1925050508015611c1257506040513d601f19601f82011682018060405250810190611c0f91906120c1565b60015b611c95573d8060008114611c42576040519150601f19603f3d011682016040523d82523d6000602084013e611c47565b606091505b50600081511415611c8d576040517f08c379a0000000000000000000000000000000000000000000000000000000008152600401611c8490612568565b60405180910390fd5b805181602001fd5b63150b7a0260e01b7bffffffffffffffffffffffffffffffffffffffffffffffffffffffff1916817bffffffffffffffffffffffffffffffffffffffffffffffffffffffff191614915050611cea565b600190505b949350505050565b6000808273ffffffffffffffffffffffffffffffffffffffff163b119050919050565b828054611d219061297e565b90600052602060002090601f016020900481019282611d435760008555611d8a565b82601f10611d5c57805160ff1916838001178555611d8a565b82800160010185558215611d8a579182015b82811115611d89578251825591602001919060010190611d6e565b5b509050611d979190611d9b565b5090565b5b80821115611db4576000816000905550600101611d9c565b5090565b6000611dcb611dc684612768565b612743565b905082815260208101848484011115611de357600080fd5b611dee84828561293c565b509392505050565b6000611e09611e0484612799565b612743565b905082815260208101848484011115611e2157600080fd5b611e2c84828561293c565b509392505050565b600081359050611e4381612ee5565b92915050565b600081359050611e5881612efc565b92915050565b600081359050611e6d81612f13565b92915050565b600081519050611e8281612f13565b92915050565b600082601f830112611e9957600080fd5b8135611ea9848260208601611db8565b91505092915050565b600082601f830112611ec357600080fd5b8135611ed3848260208601611df6565b91505092915050565b600081359050611eeb81612f2a565b92915050565b600060208284031215611f0357600080fd5b6000611f1184828501611e34565b91505092915050565b60008060408385031215611f2d57600080fd5b6000611f3b85828601611e34565b9250506020611f4c85828601611e34565b9150509250929050565b600080600060608486031215611f6b57600080fd5b6000611f7986828701611e34565b9350506020611f8a86828701611e34565b9250506040611f9b86828701611edc565b9150509250925092565b60008060008060808587031215611fbb57600080fd5b6000611fc987828801611e34565b9450506020611fda87828801611e34565b9350506040611feb87828801611edc565b925050606085013567ffffffffffffffff81111561200857600080fd5b61201487828801611e88565b91505092959194509250565b6000806040838503121561203357600080fd5b600061204185828601611e34565b925050602061205285828601611e49565b9150509250929050565b6000806040838503121561206f57600080fd5b600061207d85828601611e34565b925050602061208e85828601611edc565b9150509250929050565b6000602082840312156120aa57600080fd5b60006120b884828501611e5e565b91505092915050565b6000602082840312156120d357600080fd5b60006120e184828501611e73565b91505092915050565b600080604083850312156120fd57600080fd5b600083013567ffffffffffffffff81111561211757600080fd5b61212385828601611eb2565b925050602061213485828601611edc565b9150509250929050565b60006020828403121561215057600080fd5b600061215e84828501611edc565b91505092915050565b6000806040838503121561217a57600080fd5b600061218885828601611edc565b925050602061219985828601611edc565b9150509250929050565b6121ac816128c8565b82525050565b6121bb816128da565b82525050565b60006121cc826127ca565b6121d681856127e0565b93506121e681856020860161294b565b6121ef81612b17565b840191505092915050565b6000612205826127d5565b61220f81856127f1565b935061221f81856020860161294b565b61222881612b17565b840191505092915050565b600061223e826127d5565b6122488185612802565b935061225881856020860161294b565b80840191505092915050565b60006122716027836127f1565b915061227c82612b28565b604082019050919050565b60006122946032836127f1565b915061229f82612b77565b604082019050919050565b60006122b76025836127f1565b91506122c282612bc6565b604082019050919050565b60006122da601c836127f1565b91506122e582612c15565b602082019050919050565b60006122fd6024836127f1565b915061230882612c3e565b604082019050919050565b60006123206019836127f1565b915061232b82612c8d565b602082019050919050565b60006123436029836127f1565b915061234e82612cb6565b604082019050919050565b60006123666037836127f1565b915061237182612d05565b604082019050919050565b6000612389603e836127f1565b915061239482612d54565b604082019050919050565b60006123ac6020836127f1565b91506123b782612da3565b602082019050919050565b60006123cf601d836127f1565b91506123da82612dcc565b602082019050919050565b60006123f26018836127f1565b91506123fd82612df5565b602082019050919050565b60006124156021836127f1565b915061242082612e1e565b604082019050919050565b6000612438601e836127f1565b915061244382612e6d565b602082019050919050565b600061245b602e836127f1565b915061246682612e96565b604082019050919050565b61247a81612932565b82525050565b600061248c8285612233565b91506124988284612233565b91508190509392505050565b60006020820190506124b960008301846121a3565b92915050565b60006080820190506124d460008301876121a3565b6124e160208301866121a3565b6124ee6040830185612471565b818103606083015261250081846121c1565b905095945050505050565b600060208201905061252060008301846121b2565b92915050565b6000602082019050818103600083015261254081846121fa565b905092915050565b6000602082019050818103600083015261256181612264565b9050919050565b6000602082019050818103600083015261258181612287565b9050919050565b600060208201905081810360008301526125a1816122aa565b9050919050565b600060208201905081810360008301526125c1816122cd565b9050919050565b600060208201905081810360008301526125e1816122f0565b9050919050565b6000602082019050818103600083015261260181612313565b9050919050565b6000602082019050818103600083015261262181612336565b9050919050565b6000602082019050818103600083015261264181612359565b9050919050565b600060208201905081810360008301526126618161237c565b9050919050565b600060208201905081810360008301526126818161239f565b9050919050565b600060208201905081810360008301526126a1816123c2565b9050919050565b600060208201905081810360008301526126c1816123e5565b9050919050565b600060208201905081810360008301526126e181612408565b9050919050565b600060208201905081810360008301526127018161242b565b9050919050565b600060208201905081810360008301526127218161244e565b9050919050565b600060208201905061273d6000830184612471565b92915050565b600061274d61275e565b905061275982826129b0565b919050565b6000604051905090565b600067ffffffffffffffff82111561278357612782612ae8565b5b61278c82612b17565b9050602081019050919050565b600067ffffffffffffffff8211156127b4576127b3612ae8565b5b6127bd82612b17565b9050602081019050919050565b600081519050919050565b600081519050919050565b600082825260208201905092915050565b600082825260208201905092915050565b600081905092915050565b600061281882612932565b915061282383612932565b9250827fffffffffffffffffffffffffffffffffffffffffffffffffffffffffffffffff0382111561285857612857612a5b565b5b828201905092915050565b600061286e82612932565b915061287983612932565b92508261288957612888612a8a565b5b828204905092915050565b600061289f82612932565b91506128aa83612932565b9250828210156128bd576128bc612a5b565b5b828203905092915050565b60006128d382612912565b9050919050565b60008115159050919050565b60007fffffffff0000000000000000000000000000000000000000000000000000000082169050919050565b600073ffffffffffffffffffffffffffffffffffffffff82169050919050565b6000819050919050565b82818337600083830152505050565b60005b8381101561296957808201518184015260208101905061294e565b83811115612978576000848401525b50505050565b6000600282049050600182168061299657607f821691505b602082108114156129aa576129a9612ab9565b5b50919050565b6129b982612b17565b810181811067ffffffffffffffff821117156129d8576129d7612ae8565b5b80604052505050565b60006129ec82612932565b91507fffffffffffffffffffffffffffffffffffffffffffffffffffffffffffffffff821415612a1f57612a1e612a5b565b5b600182019050919050565b6000612a3582612932565b9150612a4083612932565b925082612a5057612a4f612a8a565b5b828206905092915050565b7f4e487b7100000000000000000000000000000000000000000000000000000000600052601160045260246000fd5b7f4e487b7100000000000000000000000000000000000000000000000000000000600052601260045260246000fd5b7f4e487b7100000000000000000000000000000000000000000000000000000000600052602260045260246000fd5b7f4e487b7100000000000000000000000000000000000000000000000000000000600052604160045260246000fd5b6000601f19601f8301169050919050565b7f596f752063616e27742073616c6520746865205374617220796f7520646f6e2760008201527f74206f776e656400000000000000000000000000000000000000000000000000602082015250565b7f4552433732313a207472616e7366657220746f206e6f6e20455243373231526560008201527f63656976657220696d706c656d656e7465720000000000000000000000000000602082015250565b7f4552433732313a207472616e736665722066726f6d20696e636f72726563742060008201527f6f776e6572000000000000000000000000000000000000000000000000000000602082015250565b7f4552433732313a20746f6b656e20616c7265616479206d696e74656400000000600082015250565b7f4552433732313a207472616e7366657220746f20746865207a65726f2061646460008201527f7265737300000000000000000000000000000000000000000000000000000000602082015250565b7f4552433732313a20617070726f766520746f2063616c6c657200000000000000600082015250565b7f4552433732313a2061646472657373207a65726f206973206e6f74206120766160008201527f6c6964206f776e65720000000000000000000000000000000000000000000000602082015250565b7f5468652073656e646572206e65656420746f206265206f776e6572206f66206560008201527f6974686572206f66207468652074776f20746f6b656e73000000000000000000602082015250565b7f4552433732313a20617070726f76652063616c6c6572206973206e6f7420746f60008201527f6b656e206f776e6572206e6f7220617070726f76656420666f7220616c6c0000602082015250565b7f4552433732313a206d696e7420746f20746865207a65726f2061646472657373600082015250565b7f596f75206e65656420746f206861766520656e6f756768204574686572000000600082015250565b7f4552433732313a20696e76616c696420746f6b656e2049440000000000000000600082015250565b7f4552433732313a20617070726f76616c20746f2063757272656e74206f776e6560008201527f7200000000000000000000000000000000000000000000000000000000000000602082015250565b7f54686520537461722073686f756c6420626520757020666f722073616c650000600082015250565b7f4552433732313a2063616c6c6572206973206e6f7420746f6b656e206f776e6560008201527f72206e6f7220617070726f766564000000000000000000000000000000000000602082015250565b612eee816128c8565b8114612ef957600080fd5b50565b612f05816128da565b8114612f1057600080fd5b50565b612f1c816128e6565b8114612f2757600080fd5b50565b612f3381612932565b8114612f3e57600080fd5b5056fea264697066735822122018e926397f60235b70ffc3f1c681d1901ee4f3f439c18281e7697d0916e7e68264736f6c63430008010033",
  "immutableReferences": {},
  "source": "pragma solidity >=0.4.24;\n\n//Importing openzeppelin-solidity ERC-721 implemented Standard\nimport \"@openzeppelin/contracts/token/ERC721/ERC721.sol\";\n\n// StarNotary Contract declaration inheritance the ERC721 openzeppelin implementation\ncontract StarNotary is ERC721 {\n\n    // Star data\n    struct Star {\n        string name;\n    }\n\n    // mapping the Star with the Owner Address\n    mapping(uint256 => Star) public tokenIdToStarInfo;\n    // mapping the TokenId and price\n    mapping(uint256 => uint256) public starsForSale;\n\n    // Implement Task 1 Add a name and symbol properties\n    // name: Is a short name to your token\n    // symbol: Is a short string like 'USD' -> 'American Dollar'\n    constructor(string memory _name, string memory _symbol) ERC721(_name, _symbol) {\n    } \n\n    // Create Star using the Struct\n    function createStar(string memory _name, uint256 _tokenId) public { // Passing the name and tokenId as a parameters\n        Star memory newStar = Star(_name); // Star is an struct so we are creating a new Star\n        tokenIdToStarInfo[_tokenId] = newStar; // Creating in memory the Star -> tokenId mapping\n        _mint(msg.sender, _tokenId); // _mint assign the the star with _tokenId to the sender address (ownership)\n    }\n\n    // Putting an Star for sale (Adding the star tokenid into the mapping starsForSale, first verify that the sender is the owner)\n    function putStarUpForSale(uint256 _tokenId, uint256 _price) public {\n        require(ownerOf(_tokenId) == msg.sender, \"You can't sale the Star you don't owned\");\n        starsForSale[_tokenId] = _price;\n    }\n\n    function buyStar(uint256 _tokenId) public  payable {\n        require(starsForSale[_tokenId] > 0, \"The Star should be up for sale\");\n        uint256 starCost = starsForSale[_tokenId];\n        address ownerAddress = ownerOf(_tokenId);\n        require(msg.value > starCost, \"You need to have enough Ether\");\n        transferFrom(ownerAddress, msg.sender, _tokenId); // We can't use _addTokenTo or_removeTokenFrom functions, now we have to use _transferFrom\n        address payable ownerAddressPayable = payable(ownerAddress); // We need to make this conversion to be able to use transfer() function to transfer ethers\n        ownerAddressPayable.transfer(starCost);\n        if(msg.value > starCost) {\n            address payable sender = payable(msg.sender);\n            sender.transfer(msg.value - starCost);\n        }\n    }\n\n    // Implement Task 1 lookUptokenIdToStarInfo\n    function lookUptokenIdToStarInfo (uint _tokenId) public view returns (string memory) {\n        //1. You should return the Star saved in tokenIdToStarInfo mapping\n        //tokenIdToStarInfo[_tokenId]\n        Star memory star = tokenIdToStarInfo[_tokenId];\n        return star.name;\n    }\n\n    // Implement Task 1 Exchange Stars function\n    function exchangeStars(uint256 _tokenId1, uint256 _tokenId2) public {\n        //1. Passing to star tokenId you will need to check if the owner of _tokenId1 or _tokenId2 is the sender\n        address ownerAddress1 = ownerOf(_tokenId1);\n        address ownerAddress2 = ownerOf(_tokenId2);\n        require(msg.sender == ownerAddress1 || msg.sender == ownerAddress2, \"The sender need to be owner of either of the two tokens\");\n        //2. You don't have to check for the price of the token (star)\n        //3. Get the owner of the two tokens (ownerOf(_tokenId1), ownerOf(_tokenId2)\n        //4. Use _transferFrom function to exchange the tokens.\n        transferFrom(ownerAddress1, ownerAddress2, _tokenId1);\n        transferFrom(ownerAddress2, ownerAddress1, _tokenId2);\n    }\n\n    // Implement Task 1 Transfer Stars\n    function transferStar(address _to1, uint256 _tokenId) public {\n        //1. Check if the sender is the ownerOf(_tokenId)\n        address ownerAddress = ownerOf(_tokenId);\n        require(msg.sender == ownerAddress);\n        //2. Use the transferFrom(from, to, tokenId); function to transfer the Star\n        transferFrom(ownerAddress, _to1, _tokenId);\n    }\n\n}\n",
  "sourcePath": "/Users/iceman/Downloads/project2/contracts/StarNotary.sol",
  "compiler": {
    "name": "solc",
    "version": "0.8.1+commit.df193b15.Emscripten.clang"
  },
  "schemaVersion": "3.4.8",
  "updatedAt": "2022-07-10T20:03:42.281Z",
  "networkType": "ethereum",
  "devdoc": {
    "kind": "dev",
    "methods": {
      "approve(address,uint256)": {
        "details": "See {IERC721-approve}."
      },
      "balanceOf(address)": {
        "details": "See {IERC721-balanceOf}."
      },
      "getApproved(uint256)": {
        "details": "See {IERC721-getApproved}."
      },
      "isApprovedForAll(address,address)": {
        "details": "See {IERC721-isApprovedForAll}."
      },
      "name()": {
        "details": "See {IERC721Metadata-name}."
      },
      "ownerOf(uint256)": {
        "details": "See {IERC721-ownerOf}."
      },
      "safeTransferFrom(address,address,uint256)": {
        "details": "See {IERC721-safeTransferFrom}."
      },
      "safeTransferFrom(address,address,uint256,bytes)": {
        "details": "See {IERC721-safeTransferFrom}."
      },
      "setApprovalForAll(address,bool)": {
        "details": "See {IERC721-setApprovalForAll}."
      },
      "supportsInterface(bytes4)": {
        "details": "See {IERC165-supportsInterface}."
      },
      "symbol()": {
        "details": "See {IERC721Metadata-symbol}."
      },
      "tokenURI(uint256)": {
        "details": "See {IERC721Metadata-tokenURI}."
      },
      "transferFrom(address,address,uint256)": {
        "details": "See {IERC721-transferFrom}."
      }
    },
    "version": 1
  },
  "userdoc": {
    "kind": "user",
    "methods": {},
    "version": 1
  }
}